:040000008031202803
:100008007E14803120007F08F000000000002000EE
:10001800111C1428843130248031200011101B2831
:100028002700931E1B288531572527009312700837
:100038002000FF007E10090080312228F901FA0112
:10004800FB01FC012000C401C501C601C701C801AC
:10005800C901CA01CB01CC01CD017E10200081313C
:10006800AA2928302000AC002C08BA002000270854
:10007800AD002608AC00A60A0319A70A2C088400BC
:100088002D0885000008AE002E08BB003B080319A8
:10009800080025303B06031956283B0885314F25B3
:1000A80080313A282000B3015A2833162708AD00BA
:1000B8002608AC00A60A0319A70A2C0884002D08F4
:1000C80085000008BB00003A03190B29583A0319A8
:1000D8007428343A03195928143A031974283A2809
:1000E800331E83283A0886008701403FB600413F07
:1000F800B700423FB800433FB900043091283A089E
:1001080086008701403FAC00413FAD002C08B60097
:100118002D08B700B801B9010230AC002C08BA07A5
:10012800BB01BB0A08303B060319C7283B08AC00D3
:10013800AD01AC35AD0DAC35AD0D3C302C078400B0
:1001480082302D3D8500003FAE00013FAF00023FE9
:10015800B000033FB10031083902031DBD28300843
:100168003802031DBD282F083702031DBD282E089D
:100178003602031CC7280130AC002C08BB07083026
:100188003B06031D9A283B08B400B501B41BB50310
:10019800FF302000B407FF30B53D340A0319350A93
:1001A80003193A2835088500340884008435850DFC
:1001B8008435850D3C3084078230853D003FF10051
:1001C800013FF200023FF300033FF4003908F80052
:1001D8003808F7003708F6003608F50083315E2343
:1001E800803171080F392000AC002C08B2003208A9
:1001F8003E3E840085300318013E85000008AC00AF
:100208002C08BB003B0885314F258031CC280800DD
:1002180000302000A4000030A3000030A20000300D
:10022800A100A5010E0CF500F50C750C0139F600BE
:100238000130F635890B1D290E0E01397607F700B6
:100248007708A6000330F600D830F5004230890B55
:100258002B29F50B2B29F60B2B2920002608F50056
:100268007508A000A50103302502031890290E0C7B
:10027800F500F50C750C0139F6000130F635890BDF
:1002880042290E0E01397607F7007708A6002608DE
:100298002006031D5B290330F600D830F5004230F4
:1002A800890B5429F50B5429F60B54296129FF3081
:1002B800F50075082000A60090290130F5007508A2
:1002C8002000A50737292C30A4006730A3004E3042
:1002D800A20090308E292C30A4006730A3004E3045
:1002E800A20091308E292C30A4006730A3004E3034
:1002F800A20080308E292C30A4006730A3004E3035
:10030800A20081308E290030A4000030A300003004
:10031800A2000030A100A1292608003A03196F297C
:10032800013A03197F29033A03197729013A031976
:100338006729FC3A0319872987292408F400230828
:10034800F3002208F2002108F10008002C302000F8
:10035800C3006730C2004E30C1008130C0002C306D
:10036800BF006730BE004E30BD008130BC00833115
:10037800F523813181310C21813174082000C300BB
:100388007308C2007208C1007108C0004308420423
:1003980041044004031DD829D530A6008430A700A5
:1003A800803135208131182A20003F084306031D7B
:1003B800E7293E084206031DE7293D084106031DBB
:1003C800E7293C0840060319182A4308BF004208D9
:1003D800BE004108BD004008BC004308F5004208C3
:1003E800F4004108F3004008F2008231A82281316C
:1003F800F8302000A6008430A7004308AB0042086C
:10040800AA004108A9004008A800803135208131A0
:1004180020004308F4004208F3004108F2004008B5
:10042800F10083310A2381312000481DBE29430889
:10043800F5004208F4004108F3004008F200823158
:10044800A8228131AE302000A6008430A7004308DE
:10045800AB004208AA004108A9004008A800803162
:100468003520813120004811270093128B15BE29B1
:1004780001340034003400341034003400340034C3
:1004880000340134003400340034103400340034B3
:1004980000340034013400340034003410340034A3
:1004A8000034003400340134003400340034103493
:1004B8000D340A345F345F345F345F345F345F3443
:1004C8005F345F345F345F345F345F345F345F348C
:1004D8005F345F345F345F345F345F345F345F347C
:1004E8005F345F345F345F345F345F345F345F346C
:1004F8005F345F345F345F345F345F345F345F345C
:100508005F345F345F345F345F345F345F345F344B
:100518005F345F345F345F345F345F345F345F343B
:100528005F345F345F345F345F345F345F345F342B
:100538005F345F345F345F345F345F345F345F341B
:100548000D340A340A340034F601F701F701053096
:1005580077020318080085312A2582312030760277
:100568000318ED2A72082000A0007308A10074087F
:10057800A2007508A3000130A4000030A5000030D7
:10058800A6000030A7007603FF3A1F3E890AD02A4A
:10059800A435A50DA60DA70D890BCC2A2408A00506
:1005A8002508A1052608A2052708A3052308220473
:1005B800210420040319E42A843185248231E72A9E
:1005C80084315C24823101302000A0002008F60725
:1005D800B22A22008E1403302000A000DA30890BE2
:1005E800F32AA00BF32A000022008E10F6016830CF
:1005F8002000A000E430890BFF2AA00BFF2A00008E
:1006080001302000A0002008F707AB2A90307106BF
:100618004E30031972066730031973062C3003191C
:100628007406031D1E2B20004810C81022008E12CD
:100638000C160800913071064E30031972066730A7
:10064800031973062C3003197406031D342B20007C
:100658004810C814FB01FC0122008E120C1208007D
:10066800803071064E30031972066730031973061D
:100678002C3003197406031D482B20004810C8109D
:1006880022008E160C120800813071064E300319B4
:1006980072066730031973062C3003197406031D9C
:1006A800080020004814FB01FC01C81022008E122B
:1006B8000C12080000302000A4000030A300003015
:1006C800A2000030A10074087304720471040319B5
:1006D800A82BA501A50AF41B7D2B0130F135F20DDD
:1006E800F30DF40D890B722B0130A0002008A5072B
:1006F8006F2B0130A135A20DA30DA40D890B7E2B04
:1007080074087802031D922B73087702031D922B3D
:1007180072087602031D922B71087502031C9D2B2B
:100728007108F5027208F63B7308F73B7408F83B4A
:1007380021140130F436F30CF20CF10C890B9E2BCA
:100748000130A502031D7D2B2408F4002308F300C3
:100758002208F2002108F1000800203420344C342B
:10076800273469346E3469347434693461346C34D0
:10077800693473346134743469346F346E342034BA
:100788006434653420346C346134203463346F3419
:100798006D346D3475346E34693463346134743453
:1007A80069346F346E342034523453343234333431
:1007B8003234203473342734653473347434203439
:1007C8006234693465346E34203464346534723488
:1007D8006F3475346C346534653420340D340A3420
:1007E800003421001908873970389900FC309905C0
:1007F800200018143F3098059811303098041815C7
:100808009913210011140B17111223009E161E12A2
:100818009D171E131E15CF309B0022009D171D1516
:100828008B178B152700921621008C168E120C122E
:100838000E168E158E1023008E112100951324009C
:100848008C1622008E160C128E1020004810C8102C
:1008580048118531122508000130FB070030FC3DA6
:1008680000307C02103003197B02031C08002000B2
:10087800C81C4C2C031022000C1E0314031C472C0C
:1008880022000C16492C22000C12FB01FC01080066
:10089800481C0800031022008E1E0314031C572C4A
:1008A80022008E16592C22008E12FB01FC01080032
:1008B80022008E140330F100DA30890B612CF10B21
:1008C800612C003222008E100330F1007D30890B3C
:1008D8006B2CF10B6B2C000022008E140330F100FE
:1008E800DA30890B752CF10B752C003222008E1032
:1008F8000E30F1008030890B7F2CF10B7F2C0032F9
:10090800080022008E140330F100DA30890B8A2C9B
:10091800F10B8A2C003222008E100E30F10080304C
:10092800890B942CF10B942C003222008E14033086
:10093800F100DA30890B9E2CF10B9E2C003222003C
:100948008E100330F1007D30890BA82CF10BA82CF8
:1009580000000800533479346E34633468347234D8
:100968006F346E34693473346134743469346F3479
:100978006E3420346434653420346C34613420346B
:1009880063346F346D346D3461346E34643465347B
:1009980020343A34203425346C3458340D340A3435
:1009A80000342034213421342034453472347234F4
:1009B80065347534723420346C346534633474347B
:1009C80075347234653420344F34703474346F3471
:1009D8002D3463346F34753470346C346534753445
:1009E80072340D340A34003443346F346D346D344A
:1009F80061346E3464346534203465346E342034A4
:100A080063346F3475347234733420343A34203498
:100A180025346C3458340D340A3400345C302000EA
:100A2800A6008230A700803135208531B130200002
:100A3800A6008330A7008031352085315E30200044
:100A4800A6008230A70080313520080022008E14CD
:100A58000330F100DA30890B2F2DF10B2F2D0032E6
:100A680022008E101C30F100CA30890B392DF10B91
:100A7800392D080030343134323433343434353499
:100A880036343734383439344134423443344434D6
:100A9800453446340034F1002000111E502D7108F1
:0E0AA80023009A000800200048158B1108005A
:020000040001F9
:04000E00E4C9FFDB67
:00000001FF
