:040000008031202803
:100008007E14803120007F08F000000000002000EE
:10001800111C142886313A268031200011101B2823
:100028002700931E1B288631FD262700931270088F
:100038002000FF007E100900803122284330840010
:10004800003085000E308631F7267E10200083317F
:020058004C2B2F
:10020000013400340034003410340034003400343D
:10021000003401340034003400341034003400342D
:10022000003400340134003400340034103400341D
:10023000003400340034013400340034003410340D
:100240000D340A345F345F345F345F345F345F34BD
:100250005F345F345F345F345F345F345F345F3406
:100260005F345F345F345F345F345F345F345F34F6
:100270005F345F345F345F345F345F345F345F34E6
:100280005F345F345F345F345F345F345F345F34D6
:100290005F345F345F345F345F345F345F345F34C6
:1002A0005F345F345F345F345F345F345F345F34B6
:1002B0005F345F345F345F345F345F345F345F34A6
:1002C0005F345F345F345F345F345F345F345F3496
:1002D0000D340A340A340034203420344C342734AA
:1002E00069346E3469347434693461346C3469341B
:1002F00073346134743469346F346E34203464344C
:10030000653420346C346134203463346F346D349C
:100310006D3475346E3469346334613474346934E3
:100320006F346E34203452345334323433343234F4
:100330002034733427346534733474342034623495
:10034000693465346E3420346434653472346F3407
:1003500075346C346534653420340D340A3400341B
:10036000533479346E346334683472346F346E3499
:10037000693473346134743469346F346E342034C6
:100380006434653420346C346134203463346F3425
:100390006D346D3461346E346434653420343A34F1
:1003A000203425346C3458340D340A34003420346D
:1003B0002134213420344534723472346534753438
:1003C000723420346C34653463347434753472346C
:1003D000653420344F34703474346F342D346334C6
:1003E0006F34753470346C346534753472340D3454
:1003F0000A34003443346F346D346D3461346E34F8
:1004000064346534203465346E34203463346F349E
:1004100075347234733420343A34203425346C34D7
:1004200058340D340A34003443346F346D346D3431
:1004300061346E3464346534203465346E34203471
:1004400063346F3475347234733420343A34203466
:10045000253473340D340A340034303431343234BA
:100460003334343435343634373438343934413431
:1004700042344334443445344634003428346E34F2
:1004800075346C346C342934003427302000AB00D0
:100490002B08B50020002608AC002508AB00A50AF3
:1004A0000319A60A2B0884002C0885000008AD005B
:1004B0002D08BA00BA08031908003A08253A0319AA
:1004C000662A3A088631EF2682314A2A2000B20194
:1004D000942A3216942A3508860087010108B6004E
:1004E0000030B7000130AB002B08B50737083604E1
:1004F000031D7E2A3E30B6008230B70036088400E5
:10050000370885000008003803194A2A3608840095
:100510003708850000088631EF268231013020003F
:10052000B6070030B73D7E2A2608AC002508AB0090
:10053000A50A0319A60A2B0884002C0885000008C8
:10054000BA00003A03194B2B583A0319B12A343A2E
:100550000319692A1F3A03196B2A0B3A0319B12AA6
:100560004A2A321EC02A350886008701403FB6005D
:10057000413FB700423FB800433FB9000430CE2AA4
:10058000350886008701403FAB00413FAC002B0897
:10059000B6002C08B700B801B9010230AB002B0837
:1005A000B507BA01BA0A3A08083A0319042B3A08FF
:1005B000AB00AC01AB35AC0DAB35AC0D00302B074F
:1005C000840081302C3D8500003FAD00013FAE002E
:1005D000023FAF00033FB00030083902031DFA2A82
:1005E0002F083802031DFA2A2E083702031DFA2AA3
:1005F0002D083602031C042B0130AB002B08BA0770
:100600003A08083A031DD72A3A08B300B401B31BCD
:10061000B403FF302000B307FF30B43DFF30340691
:10062000031D142BFF30330603194A2A34088500B2
:10063000330884008435850D8435850D00308407AA
:100640008130853D003FF100013FF200023FF300A1
:10065000033FF4003908F8003808F7003708F600BF
:100660003608F50085316325823171080F39200085
:10067000AB002B08B10031082D3E840082300318F6
:10068000013E85000008AB002B08BA003A0886310D
:10069000EF268231092B08002C302000C200673081
:1006A000C1004E30C0008130BF002C30BE0067302A
:1006B000BD004E30BC008130BB008531B625833192
:1006C00043302000C2006F30C1004E30C0006630A1
:1006D000BF001430A5008230A6004208F400410893
:1006E000F3004008F2003F08F1008531FA2583311C
:1006F000FC007C082000A700823145228331833131
:10070000FD23833174082000C2007308C100720801
:10071000C0007108BF004208410440043F04031DAB
:10072000992BD730A5008130A60082314522833134
:10073000D92B20003E084206031DA82B3D08410688
:10074000031DA82B3C084006031DA82B3B083F06B1
:100750000319D92B4208BE004108BD004008BC0067
:100760003F08BB004208F6004108F5004008F400CD
:100770003F08F30084319F248331FA302000A50024
:100780008130A6004208AA004108A9004008A8003C
:100790003F08A70082314522833120004208F4003F
:1007A0004108F3004008F2003F08F10085310325BD
:1007B000833120004B1D7F2B4208F6004108F500D5
:1007C0004008F4003F08F30084319F248331B030A7
:1007D0002000A5008130A6004208AA004108A90017
:1007E0004008A8003F08A70082314522833120003D
:1007F0004B11270093128B157F2B00302000A40093
:100800000030A3000030A2000030A100A5010E0CB2
:10081000F500F50C750C0139F6000130F635890B41
:100820000E2C0E0E01397607F7007708A60003306C
:10083000F700D830F6004230F500F50B1D2CF60B12
:100840001D2CF70B1D2C003220002608F500750822
:10085000A000A501033025020318852C0E0CF5001D
:10086000F50C750C0139F6000130F635890B352C85
:100870000E0E01397607F7007708A6002608200635
:10088000031D502C0330F700D830F6004230F5003D
:10089000F50B482CF60B482CF70B482C0032562C45
:1008A000FF30F50075082000A600852C0130F5000A
:1008B00075082000A5072A2C2C30A4006730A3005F
:1008C0004E30A2009030832C2C30A4006730A3005F
:1008D0004E30A2009130832C2C30A4006730A3004E
:1008E0004E30A2009230832C2C30A4006730A3003D
:1008F0004E30A2008130832C0030A4000030A300D1
:100900000030A2000030A100962C2608003A0319FE
:10091000642C013A0319742C033A03196C2C013A24
:1009200003195C2CFC3A03197C2C7C2C2408F40061
:100930002308F3002208F2002108F1000800F70163
:10094000F801F80105307802031808008631D8262E
:100950008431203077020318E42C73082000A000B3
:100960007408A1007508A2007608A3000130A40055
:100970000030A5000030A6000030A7007703FF3A42
:100980001F3E890AC72CA435A50DA60DA70D890BFE
:10099000C32C2408A0052508A1052608A2052708C0
:1009A000A30523082204210420040319DB2C86312B
:1009B00094268431DE2C8631682684310130200073
:1009C000A0002008F707A92C22008E140330200075
:1009D000A100DA30A000A00BEB2CA10BEB2C000047
:1009E00022008E10F70168302000A100E430A00042
:1009F000A00BF82CA10BF82C000001302000A00067
:100A00002008F807A22C2C307406031D112D673026
:100A10007306031D112D4E307206031D112D9030EB
:100A20007106031D1A2D20004B10CB1022008E12D0
:100A30000C1608002C307406031D282D6730730631
:100A4000031D282D4E307206031D282D913071068E
:100A5000031D332D20004B10CB14C701C801220009
:100A60008E120C1208002C307406031D412D6730C5
:100A70007306031D412D4E307206031D412D923029
:100A80007106031D4A2D20004B10CB1022008E163C
:100A90000C1208002C307406031D582D67307306A5
:100AA000031D582D4E307206031D582D81307106DE
:100AB000031D080020004B14C701C801CB10220001
:100AC0008E120C12080000302000A3000030A2009B
:100AD0000030A1000030A000740873047204710497
:100AE0000319AD2DA401A40AF41B822D0130F135A8
:100AF000F20DF30DF40D890B772D0130F900790813
:100B0000A407742D0130A035A10DA20DA30D890BF2
:100B1000832D74087802031D972D73087702031D37
:100B2000972D72087602031D972D71087502031C1C
:100B3000A22D7108F5027208F63B7308F73B7408A2
:100B4000F83B20140130F436F30CF20CF10C890B55
:100B5000A32D0130A402031D822D2308F4002208D6
:100B6000F3002108F2002008F10008002100190814
:100B7000873970389900FC309905200018143F30EF
:100B80009805981130309804181599132100111404
:100B90000B17111223009E161E129D171E131E15F1
:100BA000CF309B0022009D171D158B178B1527003A
:100BB000921621008C168E120C120E168E158E10A7
:100BC00023008E112100951324008C1622008E160E
:100BD0000C128E1020004B10CB104B118230FB00FA
:100BE000DD30FA00FA0BF22DFB0BF22D00328631CC
:100BF000C02608007108F50075082000CF007108B4
:100C0000F5007208F6007308F7007408F800083061
:100C1000F836F70CF60CF50C890B082E7508F90060
:100C20007908CE007108F5007208F6007308F70025
:100C30007408F8001030F836F70CF60CF50C890B38
:100C40001B2E7508F9007908CD007108F5007208AF
:100C5000F6007308F7007408F8001830F836F70C3F
:100C6000F60CF50C890B2E2E7508F9007908CC00CE
:100C70004C30080001302000C7070030C83D00306C
:100C80004802103003194702031C0800CB1C572EE2
:100C9000031022000C1E0314031C512E22000C16FC
:100CA000532E22000C122000C701C80108004B1C63
:100CB0000800031022008E1E0314031C622E220063
:100CC0008E16642E22008E122000C701C801080073
:100CD00022008E140330F200DA30F100F10B6E2E98
:100CE000F20B6E2E000022008E100330F2007D30D9
:100CF000F100F10B792EF20B792E22008E140330C5
:100D0000F200DA30F100F10B832EF20B832E00009B
:100D100022008E100E30F2008030F100F10B8E2E8A
:100D2000F20B8E2E0000080022008E140330F20019
:100D3000DA30F100F10B9A2EF20B9A2E000022000D
:100D40008E100E30F2008030F100F10BA52EF20B68
:100D5000A52E000022008E140330F200DA30F100DC
:100D6000F10BB02EF20BB02E000022008E100330DB
:100D7000F2007D30F100F10BBB2EF20BBB2E080010
:100D800020302000A5008130A60082314522863126
:100D90006C302000A5008130A600823145228631CA
:100DA00022302000A5008130A600823145220800B3
:100DB00022008E140330F200DA30F100F10BDE2E47
:100DC000F20BDE2E000022008E101C30F200C93023
:100DD000F100F10BE92EF20BE92E00320800F100D0
:100DE0002000111EF02E710823009A0008006400F4
:100DF00080010131890BF82E003420004B158B1136
:020E00000800E8
:020000040001F9
:04000E00E4C9FFDB67
:00000001FF
