:0400000080312628FD
:100008007E14803120007F08FD00000000002000E1
:10001800111C142885312B2580312000111022282D
:10002800131E1C2882318F228031200013122228AF
:10003800931E22288531FA25200093127D08FF009F
:100048007E10090080312828703084002330850014
:100058008030FE000030FF008531DF2580315730C9
:100068008400003085001630FE000030FF00853126
:10007800DF258031A0308400003085000D30FE007F
:100088000030FF008531DF257E10200080314C28AC
:100098002000CF01D0018431EF24803120005A089C
:1000A800031D61285908031D6128C430570209300F
:1000B800583B031861286C105228D501D60100302E
:1000C800D4000030D3000030D2000030D100CF017E
:1000D800D0015608803AC70080304702031D7628B1
:1000E8003F30550203185B2920006C1C6D28560808
:1000F800C8005508C700C735C80D7030C90023307F
:10010800CA0047084907860048084A3D870057083B
:10011800C03F5808C13F5608C8005508C700C73532
:10012800C80D7030C9002330CA0047084907860047
:1001380048084A3D8700403FCB00413FCC004C086F
:10014800803ACD0080304D02031DAC2896304B021A
:10015800031CCE2820005608C8005508C700C7351C
:10016800C80D7030C9002330CA0047084907860007
:1001780048084A3D8700403FCB00413FCC004C082F
:10018800803ACD0086304D02031DCC2841304B0209
:10019800031CD128013020005029200055182D2992
:1001A8005608C8005508C700C735C80D7030C900C3
:1001B8002330CA0047084907860048084A3D870097
:1001C800403FCB00413FCC004C08803ACD00813005
:1001D8004D02031DF128F5304B02031C1429013090
:1001E8002000C7000030C8000030C9000030CA0035
:1001F8005108CB005208CC005308CD005408CE005B
:100208000130CB35CC0DCD0DCE0D890B05294B0812
:10021800C7074C08C83D4D08C93D4E08CA3D2429AA
:1002280020005108C7005208C8005308C9005408E4
:10023800CA000130C735C80DC90DCA0D890B1E2962
:100248004A08D4004908D3004808D2004708D1001A
:1002580054295608C8005508C700C735C80D70305E
:10026800C9002330CA0047084907860048084A3DA4
:100278008700403FCB00413FCC004C08803ACD007E
:1002880081304D02031D4A29F5304B02031C5429C5
:100298002000511C54290130CF000030D0005B29C8
:1002A80020006C100130D5070030D63D6D282000A5
:1002B8004F085004031D8A297530AE008530AF0001
:1002C8005408B3005308B2005208B1005108B000F6
:1002D8005408A3005308A2005208A1005108A00026
:1002E8008431642480312000C7004708B40081317C
:1002F8008C21803120005408A3005308A200520822
:10030800A1005108A0008331AD23803120005F286F
:1003180030302000B5003508C50020002F08B60091
:100328002E08B500AE0A0319AF0A3508840036084E
:1003380085000008B7003708C600460803190800FA
:10034800253046060319AD2946088531EB2581314C
:1003580091292000BC01DA293C16DA2945088600D3
:1003680087010108C3000030C4000130B50035081A
:10037800C50743084404031DC529F330C30085306D
:10038800C400430884004408850012000319912919
:10039800430884004408850000088531EB25813135
:1003A80001302000C3070030C43DC5292F08B6001E
:1003B8002E08B500AE0A0319AF0A350884003608BE
:1003C80085000008C600003A03198E2A583A031916
:1003D800F729343A0319B0291F3A0319B2290B3AFD
:1003E8000319F72991293C1E062A4508860087012A
:1003F800403FBF00413FC000423FC100433FC200F1
:100408000430142A450886008701403FB500413F63
:10041800B6003508BF003608C000C101C20102306D
:10042800B5003508C507C601C60A083046060319CF
:100438004A2A4608B500B601B535B60DB535B60D2C
:100448004130350784008330363D8500003FB700D2
:10045800013FB800023FB900033FBA003A08420220
:10046800031D402A39084102031D402A380840026A
:10047800031D402A37083F02031C4A2A0130B500F1
:100488003508C60708304606031D1D2A4608BD0064
:10049800BE01BD1BBE03FF302000BD07FF30BE3DBF
:1004A8003D0A03193E0A031991293E0885003D08B3
:1004B80084008435850D8435850D4130840783306B
:1004C800853D003FA000013FA100023FA200033F7D
:1004D800A3004208A7004108A6004008A5003F085D
:1004E800A400843111248131200020080F39B5007F
:1004F8003508BB003B08AC3E840085300318013E3C
:1005080085000008B5003508C60046088531EB258A
:1005180081314F2A080020006A08E4006908E300D6
:100528006C180800E901EA0185319A2582317008C2
:10053800F5007108F600F701F80120006308F900DA
:100548006408FA00FB01FC011030F935FA0DFB0DC7
:10055800FC0D890BA92A7908F5077A08F63D7B086E
:10056800F73D7C08F83D7808E2007708E100760856
:10057800E0007508DF008531882582317008F500B4
:100588007108F600F701F80120006508F90066080F
:10059800FA00FB01FC011030F935FA0DFB0DFC0DDA
:1005A800890BD02A7908F5077A08F63D7B08F73DCC
:1005B8007C08F83D7808DE007708DD007608DC0066
:1005C8007508DB005F08F5006008F6006108F700B1
:1005D8006208F8005B09F9005C09FA005D09FB0094
:1005E8005E09FC00F90A0319FA0A0319FB0A031940
:1005F800FC0A7908F5077A08F63D7B08F73D7C0880
:10060800F83D7808DA007708D9007608D800750828
:10061800D7005B08F5005C08F6005D08F7005E0887
:10062800F80021002009F9002109FA002209FB003D
:100638002309FC00F90A0319FA0A0319FB0A03192A
:10064800FC0A7908F5077A08F63D7B08F73D7C082F
:10065800F83D7808A7007708A6007608A500750871
:10066800A40085319A2570082100A0007108A10016
:10067800A201A30120006C140800013400340034E6
:1006880000341034003400340034003401340034B1
:1006980000340034103400340034003400340134A1
:1006A8000034003400341034003400340034003492
:1006B800013400340034003410340D340A345F340B
:1006C8005F345F345F345F345F345F345F345F348A
:1006D8005F345F345F345F345F345F345F345F347A
:1006E8005F345F345F345F345F345F345F345F346A
:1006F8005F345F345F345F345F345F345F345F345A
:100708005F345F345F345F345F345F345F345F3449
:100718005F345F345F345F345F345F345F345F3439
:100728005F345F345F345F345F345F345F345F3429
:100738005F345F345F345F345F345F345F345F3419
:100748005F345F345F345F345F340D340A340A3405
:1007580000349030200020064E30031921066730FF
:10076800031922062C3003192306031DC52B22006A
:100778000E128E112000EC106C1122008C128E16B5
:1007880008009130200020064E30031921066730FA
:10079800031922062C3003192306031DDF2B220020
:1007A8000E168E152000EC106C15E701E8012200EA
:1007B8008C128E1208008030200020064E3003195B
:1007C80021066730031922062C3003192306031D5E
:1007D800F72B22000E168E112000EC106C1122004F
:1007E8008C168E1208008130200020064E30031926
:1007F80021066730031922062C3003192306031D2E
:10080800080022000E128E152000EC14E701E80102
:100818006C1122008C128E12080000302000AC00EF
:100828000030AB000030AA000030A90023082204E1
:100838002104200403195B2CAD01AD0AA31B302C45
:100848000130A035A10DA20DA30D890B252C013077
:10085800A8002808AD07222C0130A935AA0DAB0D38
:10086800AC0D890B312C23082702031D452C2208C7
:100878002602031D452C21082502031D452C2008AE
:100888002402031C502C2008A4022108A53B22089E
:10089800A63B2308A73B29140130A336A20CA10CC0
:1008A800A00C890B512C0130AD02031D302C2C08F3
:1008B800A3002B08A2002A08A1002908A00008000C
:1008C80020002008A40024082100AB0020002008F4
:1008D800A4002108A5002208A6002308A7000830C4
:1008E800A736A60CA50CA40C890B742C2408A80008
:1008F80028082100AA0020002008A4002108A5003B
:100908002208A6002308A7001030A736A60CA50CBD
:10091800A40C890B892C2408A80028082100A90008
:1009280020002008A4002108A5002208A60023080A
:10093800A7001830A736A60CA50CA40C890B9E2C72
:100948002408A80028082100A800A830080020349E
:1009580020344C34273469346E346934743469343F
:1009680061346C34693473346134743469346F3489
:100978006E3420346434653420346C34613420346B
:1009880063346F346D346D3475346E346934633464
:100998006134743469346F346E34203452345334CF
:1009A8003234333432342034733427346534733476
:1009B800743420346234693465346E3420346434D9
:1009C800653472346F3475346C346534653420346E
:1009D8000D340A3400342100190887397038990019
:1009E800FC309905200018143F30980598113030D4
:1009F800980418159913210011140B1785308531A7
:100A0800CE25843123000C1184308531BD258431F5
:100A180023008E102100111223009E161E129D170E
:100A28001E131E15CF309B0022009D171D158B1716
:100A380021008C128E120C120E128E1122008C16AE
:100A48008E120C128E118E1185315D250800013031
:100A58002000E9070030EA3D0130E7070030E83DB3
:100A680000306802103003196702031C08006C1D6F
:100A78004C2D031022008E1E0314031C462D220049
:100A88008E16482D22008E122000E701E80108008A
:100A9800EC1C0800031022008C1E0314031C572DA5
:100AA80022008C16592D22008C122000E701E80143
:100AB800080061302000AE008330AF0081318C2106
:100AC8008531AB302000AE008430AF0081318C21FD
:100AD800853163302000AE008330AF0081318C2136
:100AE80008004F34723464347234653420343A3434
:100AF800203425346C34583420343D3420342534A3
:100B080073340D340A3400342000EB11931AEB15BA
:100B180026001808F2007208F3001908F20072089B
:100B2800F4007408F1007308F000080020006B114D
:100B3800131A6B1526001108F2007208F300120848
:100B4800F2007208F4007408F1007308F00008005D
:100B58003034313432343334343435343634373451
:100B680038343934413442344334443445344634D7
:100B780000342000A00020080F3926009A00200029
:100B8800A01FC92D9312210093162000EB112100FC
:100B98008E1408002000A00020080F3926009300BA
:100BA8002000A01FDA2D13122100131620006B114C
:100BB80021000C1508006400800101310130FE029B
:100BC8000030FF3B7F087E0403190034E02D20002D
:100BD800A000111EED2D200823009A0008002834DB
:100BE8006E3475346C346C342934003420006A084F
:080BF800E6006908E5000800B1
:020000040001F9
:04000E00E4C9FFDB67
:00000001FF
