:0400000080312628FD
:100008007E14803120007F08FD00000000002000E1
:10001800111C14288531D425803120001110222884
:10002800131E1C288331DB23803120001312222861
:10003800931E222886317C26200093127D08FF001B
:100048007E10090080312828703084002330850014
:100058008030FE000030FF00863168268031553040
:100068008400003085001A30FE000030FF00863121
:1000780068262100A001A101A201A301A401A501F4
:10008800A601A701A8017E10200080314B2820007E
:10009800CD01CE01853198258031003020006002E5
:1000A800031D602800305F02031D602809305E02CE
:1000B800031D6028C4305D02031864286E1051289F
:1000C800D301D4010030D2000030D1000030D0007C
:1000D8000030CF00CD01CE015408803AC5008030F1
:1000E8004502031D79283F30530203185E2920007A
:1000F8006E1C70285408C6005308C500C535C60DC7
:100108007030C7002330C8004508470786004608F6
:10011800483D87005D08C03F5E08C13F5408C600DF
:100128005308C500C535C60D7030C7002330C80058
:100138004508470786004608483D8700403FC900F4
:10014800413FCA004A08803ACB0080304B02031D69
:10015800AF2896304902031CD12820005408C60055
:100168005308C500C535C60D7030C7002330C80018
:100178004508470786004608483D8700403FC900B4
:10018800413FCA004A08803ACB0086304B02031D23
:10019800CF2841304902031CD428013020005329BC
:1001A8002000531830295408C6005308C500C53527
:1001B800C60D7030C7002330C800450847078600C1
:1001C8004608483D8700403FC900413FCA004A08E9
:1001D800803ACB0081304B02031DF428F5304902E8
:1001E800031C172901302000C5000030C60000306C
:1001F800C7000030C8004F08C9005008CA0051089D
:10020800CB005208CC000130C935CA0DCB0DCC0D3E
:10021800890B08294908C5074A08C63D4B08C73D48
:100228004C08C83D272920004F08C5005008C600C3
:100238005108C7005208C8000130C535C60DC70DA2
:10024800C80D890B21294808D2004708D100460863
:10025800D0004508CF0057295408C6005308C500E8
:10026800C535C60D7030C7002330C800450847079C
:1002780086004608483D8700403FC900413FCA0004
:100288004A08803ACB0081304B02031D4D29F530D6
:100298004902031C572920004F1C57290130CD0063
:1002A8000030CE005E2920006E100130D3070030E8
:1002B800D43D702820004E084D04031D8D29B03010
:1002C800AE008330AF005208B3005108B2005008A6
:1002D800B1004F08B0005208A3005108A20050080E
:1002E800A1004F08A0008531512580312000C500AC
:1002F8004508B40081318F21803120005208A300C5
:100308005108A2005008A1004F08A00084318E2493
:1003180080312000622830302000B5003508BF0049
:1003280020002F08B6002E08B500AE0A0319AF0A40
:1003380035088400360885000008B7003708C4006F
:10034800C408031908004408253A0319B0294408C9
:1003580086317426813194292000BC01DE293C169F
:10036800DE293F08860087010108C0000030C1006F
:100378000130B5003508BF0741084004031DC829EE
:10038800D430C0008330C100400884004108850093
:1003980000080038031994294008840041088500A2
:1003A800000886317426813101302000C0070030F2
:1003B800C13DC8292F08B6002E08B500AE0A03199A
:1003C800AF0A35088400360885000008C400003AE2
:1003D8000319952A583A0319FB29343A0319B32902
:1003E8001F3A0319B5290B3A0319FB2994293C1E16
:1003F8000A2A3F0886008701403FC000413FC100EC
:10040800423FC200433FC3000430182A3F08860019
:100418008701403FB500413FB6003508C0003608A7
:10042800C100C201C3010230B5003508BF07C401CD
:10043800C40A4408083A03194E2A4408B500B6010C
:10044800B535B60DB535B60D0030350784008330A7
:10045800363D8500003FB700013FB800023FB900B4
:10046800033FBA003A084302031D442A39084202EE
:10047800031D442A38084102031D442A3708400254
:10048800031C4E2A0130B5003508C4074408083A51
:10049800031D212A4408BD00BE01BD1BBE03FF3059
:1004A8002000BD07FF30BE3DFF303E06031D5E2A1B
:1004B800FF303D06031994293E0885003D08840055
:1004C8008435850D8435850D003084078330853D5E
:1004D800003FA000013FA100023FA200033FA3008C
:1004E8004308A7004208A6004108A5004008A40048
:1004F8008431FE248131200020080F39B5003508E9
:10050800BB003B08C33E840083300318013E8500CE
:100518000008B5003508C4004408863174268131C6
:04052800532A08004A
:100600000134003400340034103400340034003439
:100610000034013400340034003410340034003429
:100620000034003401340034003400341034003419
:100630000034003400340134003400340034103409
:100640000D340A345F345F345F345F345F345F34B9
:100650005F345F345F345F345F345F345F345F3402
:100660005F345F345F345F345F345F345F345F34F2
:100670005F345F345F345F345F345F345F345F34E2
:100680005F345F345F345F345F345F345F345F34D2
:100690005F345F345F345F345F345F345F345F34C2
:1006A0005F345F345F345F345F345F345F345F34B2
:1006B0005F345F345F345F345F345F345F345F34A2
:1006C0005F345F345F345F345F345F345F345F3492
:1006D0000D340A340A340034203420344C342734A6
:1006E00069346E3469347434693461346C34693417
:1006F00073346134743469346F346E342034643448
:10070000653420346C346134203463346F346D3498
:100710006D3475346E3469346334613474346934DF
:100720006F346E34203452345334323433343234F0
:100730002034733427346534733474342034623491
:10074000693465346E3420346434653472346F3403
:1007500075346C346534653420340D340A34003417
:100760004F34723464347234653420343A34203473
:1007700025346C34583420343D34203425347334DB
:100780000D340A34003430343134323433343434B8
:1007900035343634373438343934413442344334E0
:1007A000443445344634003428346E3475346C3463
:1007B0006C342934003420006A08E801E80769082D
:1007C000E701E7076E180800E901EA0186313226E1
:1007D00083317008F5007108F600F701F801200078
:1007E0006708F9006808FA00FB01FC011030F935D0
:1007F000FA0DFB0DFC0D890BF72B7908F5077A082C
:10080000F63D7B08F73D7C08F83D7808E400770862
:10081000E3007608E2007508E10086311E26833188
:100820007008F5007108F600F701F801200065086E
:10083000F9006608FA00FB01FC011030F935FA0DE9
:10084000FB0DFC0D890B1E2C7908F5077A08F63D87
:100850007B08F73D7C08F83D7808D8007708D7007A
:100860007608D6007508D5006108F5006208F60024
:100870006308F7006408F8005509F9005609FA0002
:100880005709FB005809FC00F90A0319FA0A031971
:10089000FB0A0319FC0A7908F5077A08F63D7B087C
:1008A000F73D7C08F83D7808E0007708DF0076081F
:1008B000DE007508DD005508F5005608F6005708FB
:1008C000F7005808F8005909F9005A09FA005B09BD
:1008D000FB005C09FC00F90A0319FA0A0319FB0A78
:1008E0000319FC0A7908F5077A08F63D7B08F73DFD
:1008F0007C08F83D78082100A3007708A20076085C
:10090000A1007508A0008631322670082000D900A9
:100910007108DA00DB01DC016E1408002C302000C5
:100920002306031D9D2C67302206031D9D2C4E308F
:100930002106031D9D2C90302006031DA92C2200AA
:100940000E128E112000EE106E1122008C128E16E7
:1009500008002C3020002306031DB82C6730220627
:10096000031DB82C4E302106031DB82C91302006F3
:10097000031DC62C22000E168E152000EE106E15DB
:10098000EB01EC0122008C128E1208002C302000AA
:100990002306031DD52C67302206031DD52C4E30AF
:1009A0002106031DD52C92302006031DE12C2200C8
:1009B0000E168E112000EE106E1122008C168E1273
:1009C00008002C3020002306031DF02C673022067F
:1009D000031DF02C4E302106031DF02C8130200623
:1009E000031D080022000E128E152000EE14EB01EC
:1009F000EC016E1122008C128E12080000302000D3
:100A0000AC000030AB000030AA000030A900230881
:100A10002204210420040319482DAD01AD0AA31BB3
:100A20001D2D0130A035A10DA20DA30D890B122D96
:100A30000130A8002808AD070F2D0130A935AA0DF7
:100A4000AB0DAC0D890B1E2D23082702031D322D83
:100A500022082602031D322D21082502031D322DF6
:100A600020082402031C3D2D2008A4022108A53BD8
:100A70002208A63B2308A73B29140130A336A20C69
:100A8000A10CA00C890B3E2D0130AD02031D1D2DC4
:100A90002C08A3002B08A2002A08A1002908A00006
:100AA000080020002008A40024082100A70020003E
:100AB0002008A4002108A5002208A6002308A700FA
:100AC0000830A736A60CA50CA40C890B612D2408B0
:100AD000A80028082100A60020002008A400210862
:100AE000A5002208A6002308A7001030A736A60CF0
:100AF000A50CA40C890B762D2408A8002808210039
:100B0000A50020002008A4002108A5002208A600B6
:100B10002308A7001830A736A60CA50CA40C890B37
:100B20008B2D2408A80028082100A400A430080068
:100B300021001908873970389900FC309905200088
:100B400018143F30980598113030980418159913EF
:100B5000210011140B17853086315726853123006B
:100B60000C11843086314626853123008E102100F9
:100B7000111223009E161E129D171E131E15CF3034
:100B80009B0022009D171D158B1721008C128E12C1
:100B90000C120E128E1122008C168E120C128E1157
:100BA0008E1186310626080001302000E90700304A
:100BB000EA3D0130EB070030EC3D00306C021030B4
:100BC00003196B02031C08006E1DF52D0310220093
:100BD0008E1E0314031CEF2D22008E16F12D220011
:100BE0008E122000EB01EC010800EE1C080003103F
:100BF00022008C1E0314031C002E22008C16022ED1
:100C000022008C122000EB01EC01080020302000B3
:100C1000AE008330AF0081318F2186316C302000EF
:100C2000AE008330AF0081318F2186312230200029
:100C3000AE008330AF0081318F2108002000ED111C
:100C4000931AED1526001808F2007208F30019082F
:100C5000F2007208F4007408F101F1077308F00162
:100C6000F007080020006D11131A6D1526001108F9
:100C7000F2007208F3001208F2007208F40074081F
:100C8000F101F1077308F001F00708002000A0004F
:100C900020080F3926009A002000A01F522E931220
:100CA000210093162000ED1121008E140800200071
:100CB000A00020080F39260093002000A01F632EFB
:100CC00013122100131620006D1121000C150800CD
:100CD0006400800101310130FE020030FF3B7F08DB
:100CE0007E0403190034692E2000A000111E762E08
:100CF000200823009A00080020006A08E601E607A1
:080D00006908E501E5070800A0
:020000040001F9
:04000E00E4C9FFDB67
:00000001FF
